:100000000C9446000C9465000C9465000C946500FB
:100010000C9465000C9465000C9465000C946500CC
:100020000C9465000C9465000C9465000C946500BC
:100030000C9465000C9465000C9465000C946500AC
:100040000C9465000C9465000C9465000C9465009C
:100050000C9465000C9465000C9465000C9465008C
:100060000C9465000C9465000C9465000C9465007C
:100070000C9465000C9465000C9465000C9465006C
:100080000C9465000C9465000C94650011241FBE4F
:10009000CFEFD0E4DEBFCDBF11E0A0E0B1E0EEE8ED
:1000A000F2E000E00BBF02C007900D92AE30B10746
:1000B000D9F711E0AEE0B1E001C01D92A031B10767
:1000C000E1F70E9490000C9445010C940000CF933E
:1000D000DF9300D01F92CDB7DEB789837B836A831D
:1000E00089818A3031F48A819B81BC018DE00E9434
:1000F000670080EC90E0FC018081882F90E08072A6
:1001000099270097B1F386EC90E02981FC012083C8
:1001100080E090E00F900F900F90DF91CF910895C5
:10012000CF93DF9300D01F92CDB7DEB781E290E08E
:10013000FC01108282E290E02FEFFC01208384E238
:1001400090E02FEFFC01208385E290E0FC0110821B
:1001500087E290E02FEFFC01208388E290E0FC0131
:10016000108210920F0110920E0180E290E0FC01CB
:1001700080818B8380910E0190910F0181309105D8
:10018000C9F08130910540F08230910559F18330FA
:10019000910509F43FC04FC08B81843039F481E070
:1001A00090E090930F0180930E0104C010920F0114
:1001B00010920E018B81843039F481E090E09093AD
:1001C0000F0180930E010EC08B81882339F482E0E9
:1001D00090E090930F0180930E0104C010920F01E4
:1001E00010920E018B81823039F483E090E090937D
:1001F0000F0180930E010EC08B81882339F482E0B9
:1002000090E090930F0180930E0104C010920F01B3
:1002100010920E018B81823019F08B81882339F482
:1002200083E090E090930F0180930E0104C0109240
:100230000F0110920E0180910E0190910F018130FB
:10024000910569F08130910538F08230910551F0C7
:100250008330910551F00EC019821A820BC081E0E3
:100260008A8308C082E08A8305C081E0898383E0B5
:100270008A83000085E290E02981FC01208388E2E6
:0E02800090E02A81FC01208370CFF894FFCF1C
:0E028E000000000200000000670000000000F9
:00000001FF
