:100000000C9446000C945D000C945D000C945D0013
:100010000C945D000C945D000C945D000C945D00EC
:100020000C945D000C945D000C945D000C945D00DC
:100030000C945D000C945D000C945D000C945D00CC
:100040000C945D000C945D000C945D000C945D00BC
:100050000C945D000C945D000C945D000C945D00AC
:100060000C945D000C945D000C945D000C945D009C
:100070000C945D000C945D000C945D000C945D008C
:100080000C945D000C945D000C945D0011241FBE67
:10009000CFEFD0E4DEBFCDBF11E0A0E0B1E0E6E0FD
:1000A000F2E000E00BBF02C007900D92AE30B10746
:1000B000D9F70E9488000C9401010C940000CF93A2
:1000C000DF9300D01F92CDB7DEB789837B836A832D
:1000D00089818A3031F48A819B81BC018DE00E9444
:1000E0005F0080EC90E0FC018081882F90E08072BE
:1000F00099270097B1F386EC90E02981FC012083D9
:1001000080E090E00F900F900F90DF91CF910895D5
:10011000CF93DF9300D000D0CDB7DEB781E290E07F
:10012000FC01108282E290E02FEFFC01208384E248
:1001300090E02FEFFC01208385E290E021E0FC01BC
:10014000208381E089831B821A8280E290E0FC0197
:1001500080818C838A819B818130910599F08130E7
:10016000910538F082309105B1F083309105E1F0CE
:1001700022C08C81813029F481E090E09B838A83C6
:100180001DC01CC08C81882329F482E090E09B83F1
:100190008A8314C013C08C81813029F483E090E0FD
:1001A0009B838A830BC00AC08C81882319F41B822D
:1001B0001A8204C003C01B821A8200008A819B81BC
:1001C0008130910569F08130910538F082309105D8
:1001D00051F08330910551F00CC081E089830BC050
:1001E00082E0898308C082E0898305C081E0898339
:1001F00002C01982000085E290E02981FC01208381
:06020000A4CFF894FFCF2B
:0E02060000000002000000005F000000000089
:00000001FF
