:100000000C944D000C946C000C946C000C946C00DF
:100010000C946C000C946C000C946C000C946C00B0
:100020000C946C000C946C000C946C000C946C00A0
:100030000C946C000C946C000C946C000C946C0090
:100040000C946C000C946C000C946C000C946C0080
:100050000C946C000C946C000C946C000C946C0070
:100060000C946C000C946C000C946C000C946C0060
:100070000C946C000C946C000C946C000C946C0050
:100080000C946C000C946C000C946C00BB00E100B0
:100090002B010701510175019B0111241FBECFEFF8
:1000A000D0E4DEBFCDBF11E0A0E0B1E0E0E9F4E0D4
:1000B00000E00BBF02C007900D92AE30B107D9F738
:1000C00011E0AEE0B1E001C01D92A031B107E1F74F
:1000D0000E9410020C9446020C940000CF93DF9310
:1000E00000D01F92CDB7DEB789837B836A83898175
:1000F0008A3031F48A819B81BC018DE00E946E00C0
:1001000080EC90E0FC018081882F90E0807299273C
:100110000097B1F386EC90E02981FC01208380E018
:1001200090E00F900F900F90DF91CF910895CF93B3
:10013000DF9300D01F92CDB7DEB79A8389836B839C
:1001400080E290E0FC0180818B8380910E01909190
:100150000F01CC01A0E0B0E040E050E026E030E04C
:10016000841B950B2817390708F40BC18A5B9F4F36
:10017000FC010C943D028B81882339F485E090E0EA
:1001800090930F0180930E011BC08B81813039F455
:1001900081E090E090930F0180930E0111C08B815C
:1001A000823039F482E090E090930F0180930E0149
:1001B00007C086E090E090930F0180930E01E8C0A5
:1001C000E7C08B81882339F485E090E090930F019C
:1001D00080930E011BC08B81813039F483E090E065
:1001E00090930F0180930E0111C08B81823039F4FE
:1001F00082E090E090930F0180930E0107C086E0AB
:1002000090E090930F0180930E01C2C0C1C08B811A
:10021000882339F485E090E090930F0180930E01DC
:100220001AC08B81813039F483E090E090930F0104
:1002300080930E0110C08B81823039F482E090E00F
:1002400090930F0180930E0106C086E090E090939A
:100250000F0180930E018B81882339F485E090E0B3
:1002600090930F0180930E011BC08B81813039F474
:1002700081E090E090930F0180930E0111C08B817B
:10028000823039F484E090E090930F0180930E0166
:1002900007C086E090E090930F0180930E0178C034
:1002A00077C08B81882339F485E090E090930F012B
:1002B00080930E011AC08B81813039F481E090E087
:1002C00090930F0180930E0110C08B81823039F41E
:1002D00084E090E090930F0180930E0106C086E0C9
:1002E00090E090930F0180930E018B81882339F465
:1002F00085E090E090930F0180930E011BC08B81ED
:10030000813039F481E090E090930F0180930E01E9
:1003100011C08B81823039F482E090E090930F011C
:1003200080930E0107C086E090E090930F018093C8
:100330000E012EC02DC08B81882339F485E090E01A
:1003400090930F0180930E011BC08B81813039F493
:1003500081E090E090930F0180930E0111C08B819A
:10036000823039F482E090E090930F0180930E0187
:1003700007C086E090E090930F0180930E0108C0C3
:1003800007C086E090E090930F0180930E0100007B
:1003900080910E0190910F0182309105F1F086302D
:1003A000910591F18130910509F034C089819A81DC
:1003B000FC01808191818930910574F489819A8151
:1003C000FC01808191819C012F5F3F4F89819A813F
:1003D000FC01318320831EC01DC089819A81FC01EC
:1003E000808191811816190674F489819A81FC0123
:1003F000808191819C012150310989819A81FC0180
:100400003183208307C006C089819A81FC01118253
:10041000108200000F900F900F90DF91CF91089500
:10042000CF93DF9300D01F92CDB7DEB781E290E08B
:10043000FC01108282E290E02FEFFC01208387E232
:1004400090E02FEFFC01208388E290E0FC01108215
:10045000198287E090E09B838A8310920F011092AB
:100460000E01CE01029669810E94970088E290E019
:100470002A813B81FC012083F4CFEE0FFF1F002473
:10048000001C0BBE0790F691E02D0994F894FFCF65
:0E04900000000002000000006E0000000000EE
:00000001FF
